{
  "contractName": "Factory",
  "abi": [
    {
      "inputs": [
        {
          "internalType": "address",
          "name": "_USDC",
          "type": "address"
        }
      ],
      "stateMutability": "nonpayable",
      "type": "constructor"
    },
    {
      "anonymous": false,
      "inputs": [
        {
          "indexed": false,
          "internalType": "bytes32",
          "name": "ipfsHash",
          "type": "bytes32"
        },
        {
          "indexed": false,
          "internalType": "uint256[]",
          "name": "licenseTypes",
          "type": "uint256[]"
        },
        {
          "indexed": false,
          "internalType": "uint256[]",
          "name": "licensePrices",
          "type": "uint256[]"
        },
        {
          "indexed": false,
          "internalType": "uint256[]",
          "name": "licenseSupply",
          "type": "uint256[]"
        },
        {
          "indexed": false,
          "internalType": "address",
          "name": "licenseContract",
          "type": "address"
        },
        {
          "indexed": false,
          "internalType": "address",
          "name": "creator",
          "type": "address"
        }
      ],
      "name": "LicenseCreated",
      "type": "event"
    },
    {
      "anonymous": false,
      "inputs": [
        {
          "indexed": true,
          "internalType": "address",
          "name": "previousOwner",
          "type": "address"
        },
        {
          "indexed": true,
          "internalType": "address",
          "name": "newOwner",
          "type": "address"
        }
      ],
      "name": "OwnershipTransferred",
      "type": "event"
    },
    {
      "inputs": [],
      "name": "USDC",
      "outputs": [
        {
          "internalType": "address",
          "name": "",
          "type": "address"
        }
      ],
      "stateMutability": "view",
      "type": "function",
      "constant": true
    },
    {
      "inputs": [
        {
          "internalType": "uint256",
          "name": "",
          "type": "uint256"
        }
      ],
      "name": "allLicenses",
      "outputs": [
        {
          "internalType": "address",
          "name": "",
          "type": "address"
        }
      ],
      "stateMutability": "view",
      "type": "function",
      "constant": true
    },
    {
      "inputs": [
        {
          "internalType": "uint256",
          "name": "",
          "type": "uint256"
        }
      ],
      "name": "availableLicenseTypes",
      "outputs": [
        {
          "internalType": "bytes32",
          "name": "",
          "type": "bytes32"
        }
      ],
      "stateMutability": "view",
      "type": "function",
      "constant": true
    },
    {
      "inputs": [
        {
          "internalType": "address",
          "name": "",
          "type": "address"
        }
      ],
      "name": "licensePosition",
      "outputs": [
        {
          "internalType": "uint256",
          "name": "",
          "type": "uint256"
        }
      ],
      "stateMutability": "view",
      "type": "function",
      "constant": true
    },
    {
      "inputs": [],
      "name": "owner",
      "outputs": [
        {
          "internalType": "address",
          "name": "",
          "type": "address"
        }
      ],
      "stateMutability": "view",
      "type": "function",
      "constant": true
    },
    {
      "inputs": [],
      "name": "referrerFee",
      "outputs": [
        {
          "internalType": "uint8",
          "name": "",
          "type": "uint8"
        }
      ],
      "stateMutability": "view",
      "type": "function",
      "constant": true
    },
    {
      "inputs": [],
      "name": "renounceOwnership",
      "outputs": [],
      "stateMutability": "nonpayable",
      "type": "function"
    },
    {
      "inputs": [
        {
          "internalType": "address",
          "name": "newOwner",
          "type": "address"
        }
      ],
      "name": "transferOwnership",
      "outputs": [],
      "stateMutability": "nonpayable",
      "type": "function"
    },
    {
      "inputs": [],
      "name": "treasuryFee",
      "outputs": [
        {
          "internalType": "uint8",
          "name": "",
          "type": "uint8"
        }
      ],
      "stateMutability": "view",
      "type": "function",
      "constant": true
    },
    {
      "inputs": [],
      "name": "treasuryWallet",
      "outputs": [
        {
          "internalType": "address",
          "name": "",
          "type": "address"
        }
      ],
      "stateMutability": "view",
      "type": "function",
      "constant": true
    },
    {
      "inputs": [],
      "name": "availableLicenseTypesLength",
      "outputs": [
        {
          "internalType": "uint256",
          "name": "",
          "type": "uint256"
        }
      ],
      "stateMutability": "view",
      "type": "function",
      "constant": true
    },
    {
      "inputs": [],
      "name": "allLicensesLength",
      "outputs": [
        {
          "internalType": "uint256",
          "name": "",
          "type": "uint256"
        }
      ],
      "stateMutability": "view",
      "type": "function",
      "constant": true
    },
    {
      "inputs": [
        {
          "internalType": "bytes32",
          "name": "ipfsHash",
          "type": "bytes32"
        },
        {
          "internalType": "uint256[]",
          "name": "licenseTypes",
          "type": "uint256[]"
        },
        {
          "internalType": "uint256[]",
          "name": "licensePrices",
          "type": "uint256[]"
        },
        {
          "internalType": "uint256[]",
          "name": "licenseSupply",
          "type": "uint256[]"
        }
      ],
      "name": "createLicense",
      "outputs": [
        {
          "internalType": "address",
          "name": "licenseContract",
          "type": "address"
        }
      ],
      "stateMutability": "nonpayable",
      "type": "function"
    },
    {
      "inputs": [
        {
          "internalType": "uint8",
          "name": "_treasuryFee",
          "type": "uint8"
        }
      ],
      "name": "setTreasuryFee",
      "outputs": [],
      "stateMutability": "nonpayable",
      "type": "function"
    },
    {
      "inputs": [
        {
          "internalType": "uint8",
          "name": "_referrerFee",
          "type": "uint8"
        }
      ],
      "name": "setReferrerFee",
      "outputs": [],
      "stateMutability": "nonpayable",
      "type": "function"
    },
    {
      "inputs": [
        {
          "internalType": "address",
          "name": "_treasuryWallet",
          "type": "address"
        }
      ],
      "name": "setTreasuryWallet",
      "outputs": [],
      "stateMutability": "nonpayable",
      "type": "function"
    },
    {
      "inputs": [
        {
          "internalType": "bytes32",
          "name": "ipfsHash",
          "type": "bytes32"
        }
      ],
      "name": "addLicenseType",
      "outputs": [],
      "stateMutability": "nonpayable",
      "type": "function"
    }
  ],
  "bytecode": "0x60a06040526000805461ffff60a01b191661050560a11b17905534801561002557600080fd5b50604051613908380380613908833981016040819052610044916100c0565b61004d33610070565b600180546001600160a01b031916331790556001600160a01b03166080526100f0565b600080546001600160a01b038381166001600160a01b0319831681178455604051919092169283917f8be0079c531659141344cd1fd0a4f28419497f9722a3daafe3b4186f6b6457e09190a35050565b6000602082840312156100d257600080fd5b81516001600160a01b03811681146100e957600080fd5b9392505050565b6080516137f6610112600039600081816101be01526105c001526137f66000f3fe60806040523480156200001157600080fd5b5060043610620000ee5760003560e01c806302c6a0a514620000f35780631487c50614620001295780634626402b14620001595780636e88a7bd146200016d578063715018a6146200019557806380ed493014620001a157806389a3027114620001b85780638da5cb5b14620001e0578063a8602fea14620001ea578063af98a7391462000201578063b5811ad21462000218578063c07392701462000221578063c8b01e081462000238578063cc32d176146200024f578063d2d00c021462000264578063ec9372e9146200027b578063f2fde38b1462000284575b600080fd5b6200011662000104366004620008df565b60046020526000908152604090205481565b6040519081526020015b60405180910390f35b620001406200013a36600462000911565b6200029b565b6040516001600160a01b03909116815260200162000120565b60015462000140906001600160a01b031681565b6000546200018290600160a81b900460ff1681565b60405160ff909116815260200162000120565b6200019f620002c6565b005b62000116620001b236600462000911565b62000311565b620001407f000000000000000000000000000000000000000000000000000000000000000081565b6200014062000333565b6200019f620001fb366004620008df565b62000342565b6200019f620002123660046200092b565b62000398565b60025462000116565b6200019f6200023236600462000911565b62000413565b6200019f620002493660046200092b565b6200047c565b6000546200018290600160a01b900460ff1681565b62000140620002753660046200099e565b620004f7565b60035462000116565b6200019f62000295366004620008df565b620006cc565b60038181548110620002ac57600080fd5b6000918252602090912001546001600160a01b0316905081565b33620002d162000333565b6001600160a01b031614620003035760405162461bcd60e51b8152600401620002fa9062000a4b565b60405180910390fd5b6200030f600062000775565b565b600281815481106200032257600080fd5b600091825260209091200154905081565b6000546001600160a01b031690565b336200034d62000333565b6001600160a01b031614620003765760405162461bcd60e51b8152600401620002fa9062000a4b565b600180546001600160a01b0319166001600160a01b0392909216919091179055565b33620003a362000333565b6001600160a01b031614620003cc5760405162461bcd60e51b8152600401620002fa9062000a4b565b600f8160ff161115620003f35760405162461bcd60e51b8152600401620002fa9062000a80565b6000805460ff909216600160a01b0260ff60a01b19909216919091179055565b336200041e62000333565b6001600160a01b031614620004475760405162461bcd60e51b8152600401620002fa9062000a4b565b600280546001810182556000919091527f405787fa12a823e0f2b7631cc41b3ba8828b3321ca811111fa75cd3aa3bb5ace0155565b336200048762000333565b6001600160a01b031614620004b05760405162461bcd60e51b8152600401620002fa9062000a4b565b600f8160ff161115620004d75760405162461bcd60e51b8152600401620002fa9062000a80565b6000805460ff909216600160a81b0260ff60a81b19909216919091179055565b600080604051806020016200050c90620008d1565b601f1982820381018352601f9091011660405290506200052f60008a83620007c5565b6001600160a01b038116600090815260046020526040902054909250156200058b5760405162461bcd60e51b815260206004820152600e60248201526d4c4943454e53452045584953545360901b6044820152606401620002fa565b60405163058b69f760e51b81526001600160a01b0383169063b16d3ee090620005e9908c908c908c908c908c908c908c9033907f00000000000000000000000000000000000000000000000000000000000000009060040162000aed565b600060405180830381600087803b1580156200060457600080fd5b505af115801562000619573d6000803e3d6000fd5b5050600380546001810182557fc2575a0e9e593c00f959f8c92f12db2869c3395a3b0502d05e2516446f71f85b0180546001600160a01b0319166001600160a01b03871690811790915590546000918252600460205260409182902055517f63afa380b93d772de9fcd36ce2e689f2d9c5791053ccbda8492659e9825160ac9250620006b891508b908b908b908b908b908b908b908b90339062000aed565b60405180910390a150979650505050505050565b33620006d762000333565b6001600160a01b031614620007005760405162461bcd60e51b8152600401620002fa9062000a4b565b6001600160a01b038116620007675760405162461bcd60e51b815260206004820152602660248201527f4f776e61626c653a206e6577206f776e657220697320746865207a65726f206160448201526564647265737360d01b6064820152608401620002fa565b620007728162000775565b50565b600080546001600160a01b038381166001600160a01b0319831681178455604051919092169283917f8be0079c531659141344cd1fd0a4f28419497f9722a3daafe3b4186f6b6457e09190a35050565b600080844710156200081a5760405162461bcd60e51b815260206004820152601d60248201527f437265617465323a20696e73756666696369656e742062616c616e63650000006044820152606401620002fa565b82516200086a5760405162461bcd60e51b815260206004820181905260248201527f437265617465323a2062797465636f6465206c656e677468206973207a65726f6044820152606401620002fa565b8383516020850187f590506001600160a01b038116620008c95760405162461bcd60e51b8152602060048201526019602482015278437265617465323a204661696c6564206f6e206465706c6f7960381b6044820152606401620002fa565b949350505050565b612c618062000b6083390190565b600060208284031215620008f257600080fd5b81356001600160a01b03811681146200090a57600080fd5b9392505050565b6000602082840312156200092457600080fd5b5035919050565b6000602082840312156200093e57600080fd5b813560ff811681146200090a57600080fd5b60008083601f8401126200096357600080fd5b5081356001600160401b038111156200097b57600080fd5b6020830191508360208260051b85010111156200099757600080fd5b9250929050565b60008060008060008060006080888a031215620009ba57600080fd5b8735965060208801356001600160401b0380821115620009d957600080fd5b620009e78b838c0162000950565b909850965060408a013591508082111562000a0157600080fd5b62000a0f8b838c0162000950565b909650945060608a013591508082111562000a2957600080fd5b5062000a388a828b0162000950565b989b979a50959850939692959293505050565b6020808252818101527f4f776e61626c653a2063616c6c6572206973206e6f7420746865206f776e6572604082015260600190565b6020808252601c908201527b4645452043414e4e4f5420424520484947484552205448414e20313560201b604082015260600190565b81835260006001600160fb1b0383111562000ad057600080fd5b8260051b8083602087013760009401602001938452509192915050565b89815260c06020820152600062000b0960c083018a8c62000ab6565b828103604084015262000b1e81898b62000ab6565b9050828103606084015262000b3581878962000ab6565b6001600160a01b0395861660808501529390941660a090920191909152509897505050505050505056fe60a06040526000600d553480156200001657600080fd5b5060405180606001604052806036815260200162002c2b603691396200003c3362000057565b6200004781620000a7565b50600160045533608052620001a3565b600080546001600160a01b038381166001600160a01b0319831681178455604051919092169283917f8be0079c531659141344cd1fd0a4f28419497f9722a3daafe3b4186f6b6457e09190a35050565b8051620000bc906003906020840190620000c0565b5050565b828054620000ce9062000166565b90600052602060002090601f016020900481019282620000f257600085556200013d565b82601f106200010d57805160ff19168380011785556200013d565b828001600101855582156200013d579182015b828111156200013d57825182559160200191906001019062000120565b506200014b9291506200014f565b5090565b5b808211156200014b576000815560010162000150565b600181811c908216806200017b57607f821691505b602082108114156200019d57634e487b7160e01b600052602260045260246000fd5b50919050565b608051612a49620001e26000396000818161032e0152818161081801528181610a8101528181610d9e01528181610e330152610f060152612a496000f3fe608060405234801561001057600080fd5b506004361061015e5760003560e01c8062fdd58e1461016357806301ffc9a71461018957806302d05d3f146101ac5780630e89341c146101cc57806327334b19146101ec5780632eb2c2d61461020c5780634d0ed231146102215780634e1273f4146102445780634e71d92d1461026457806354631f001461026c578063715018a61461027f57806384783cd41461028757806389a302711461029a5780638da5cb5b146102ad578063a22cb465146102b5578063a3611b71146102c8578063af38d757146102db578063b16d3ee0146102e3578063b20b3c64146102f6578063c0892d9c14610316578063c45a015514610329578063c623674f14610350578063d41a011814610359578063e64ff9371461036c578063e93a6c901461038c578063e985e9c5146103ac578063eaf1b6c9146103e8578063f242432a146103fb578063f2fde38b1461040e575b600080fd5b610176610171366004611f22565b610421565b6040519081526020015b60405180910390f35b61019c610197366004611f64565b6104ba565b6040519015158152602001610180565b6005546101bf906001600160a01b031681565b6040516101809190611f88565b6101df6101da366004611f9c565b61050c565b604051610180919061200d565b6101766101fa366004611f9c565b600a6020526000908152604090205481565b61021f61021a366004612169565b6105a0565b005b61019c61022f366004611f9c565b60086020526000908152604090205460ff1681565b610257610252366004612216565b610637565b604051610180919061231d565b61021f610760565b61021f61027a366004612330565b61076b565b61021f610916565b610176610295366004611f9c565b61094f565b6006546101bf906001600160a01b031681565b6101bf610970565b61021f6102c336600461236a565b61097f565b6101766102d6366004611f9c565b610a56565b610176610a66565b61021f6102f13660046123ee565b610a76565b610176610304366004611f9c565b60096020526000908152604090205481565b610176610324366004611f9c565b610c12565b6101bf7f000000000000000000000000000000000000000000000000000000000000000081565b61017660075481565b61021f6103673660046124b6565b610c22565b61017661037a366004611f9c565b600f6020526000908152604090205481565b61017661039a3660046124f8565b60106020526000908152604090205481565b61019c6103ba366004612515565b6001600160a01b03918216600090815260026020908152604080832093909416825291909152205460ff1690565b61021f6103f6366004611f9c565b611180565b61021f610409366004612543565b611222565b61021f61041c3660046124f8565b6112a9565b60006001600160a01b0383166104925760405162461bcd60e51b815260206004820152602b60248201527f455243313135353a2062616c616e636520717565727920666f7220746865207a60448201526a65726f206164647265737360a81b60648201526084015b60405180910390fd5b5060009081526001602090815260408083206001600160a01b03949094168352929052205490565b60006001600160e01b03198216636cdb3d1360e11b14806104eb57506001600160e01b031982166303a24d0760e21b145b8061050657506301ffc9a760e01b6001600160e01b03198316145b92915050565b60606003805461051b906125ab565b80601f0160208091040260200160405190810160405280929190818152602001828054610547906125ab565b80156105945780601f1061056957610100808354040283529160200191610594565b820191906000526020600020905b81548152906001019060200180831161057757829003601f168201915b50505050509050919050565b6001600160a01b0385163314806105bc57506105bc85336103ba565b6106235760405162461bcd60e51b815260206004820152603260248201527f455243313135353a207472616e736665722063616c6c6572206973206e6f74206044820152711bdddb995c881b9bdc88185c1c1c9bdd995960721b6064820152608401610489565b6106308585858585611349565b5050505050565b6060815183511461069c5760405162461bcd60e51b815260206004820152602960248201527f455243313135353a206163636f756e747320616e6420696473206c656e677468604482015268040dad2e6dac2e8c6d60bb1b6064820152608401610489565b600083516001600160401b038111156106b7576106b7612020565b6040519080825280602002602001820160405280156106e0578160200160208202803683370190505b50905060005b84518110156107585761072b858281518110610704576107046125e6565b602002602001015185838151811061071e5761071e6125e6565b6020026020010151610421565b82828151811061073d5761073d6125e6565b602090810291909101015261075181612612565b90506106e6565b509392505050565b61076933611537565b565b33610774610970565b6001600160a01b03161461079a5760405162461bcd60e51b81526004016104899061262d565b826107b75760405162461bcd60e51b815260040161048990612662565b60008381526008602052604090205460ff16156108145760405162461bcd60e51b815260206004820152601b60248201527a4c4943454e5345205459504520414c52454144592045584953545360281b6044820152606401610489565b60007f00000000000000000000000000000000000000000000000000000000000000006001600160a01b031663b5811ad26040518163ffffffff1660e01b815260040160206040518083038186803b15801561086f57600080fd5b505afa158015610883573d6000803e3d6000fd5b505050506040513d601f19601f820116820180604052508101906108a79190612690565b9050808411156108c95760405162461bcd60e51b815260040161048990612662565b6000848152600860209081526040808320805460ff19166001179055600990915290208390558115610910576109008260016126a9565b6000858152600a60205260409020555b50505050565b3361091f610970565b6001600160a01b0316146109455760405162461bcd60e51b81526004016104899061262d565b61076960006116a9565b600c818154811061095f57600080fd5b600091825260209091200154905081565b6000546001600160a01b031690565b336001600160a01b03831614156109ea5760405162461bcd60e51b815260206004820152602960248201527f455243313135353a2073657474696e6720617070726f76616c20737461747573604482015268103337b91039b2b63360b91b6064820152608401610489565b3360008181526002602090815260408083206001600160a01b03871680855290835292819020805460ff191686151590811790915590519081529192917f17307eab39ab6107e8899845ad3d59bd9653f200f220920489ca2b5937696c31910160405180910390a35050565b600e818154811061095f57600080fd5b6000610a71336116f9565b905090565b336001600160a01b037f00000000000000000000000000000000000000000000000000000000000000001614610ada5760405162461bcd60e51b81526020600482015260096024820152682327a92124a22222a760b91b6044820152606401610489565b600680546001600160a01b0319166001600160a01b0383161790558487148015610b0357508683145b610b415760405162461bcd60e51b815260206004820152600f60248201526e0988a9c8ea890409a92a69a82a8869608b1b6044820152606401610489565b60005b87811015610bb157610b9f898983818110610b6157610b616125e6565b90506020020135888884818110610b7a57610b7a6125e6565b90506020020135878785818110610b9357610b936125e6565b9050602002013561076b565b80610ba981612612565b915050610b44565b50610bbb8961183c565b610bdf826000670de0b6b3a764000060405180602001604052806000815250611894565b610be8826112a9565b50600580546001600160a01b0319166001600160a01b039290921691909117905550505050505050565b600b818154811061095f57600080fd5b60008281526008602052604090205460ff161515600114610c555760405162461bcd60e51b815260040161048990612662565b6000828152600a602052604090205460011415610caa5760405162461bcd60e51b81526020600482015260136024820152721352539508131253525508115610d151511151606a1b6044820152606401610489565b6000828152600960205260408082205460065491516370a0823160e01b81529092916001600160a01b0316906370a0823190610cea903090600401611f88565b60206040518083038186803b158015610d0257600080fd5b505afa158015610d16573d6000803e3d6000fd5b505050506040513d601f19601f82011682018060405250810190610d3a9190612690565b600d54909150610d4a83836126c1565b1015610d945760405162461bcd60e51b8152602060048201526019602482015278125394d551919250d251539508141056535153950814d15395603a1b6044820152606401610489565b811561105e5760007f00000000000000000000000000000000000000000000000000000000000000006001600160a01b031663cc32d1766040518163ffffffff1660e01b815260040160206040518083038186803b158015610df557600080fd5b505afa158015610e09573d6000803e3d6000fd5b505050506040513d601f19601f82011682018060405250810190610e2d91906126d8565b905060007f00000000000000000000000000000000000000000000000000000000000000006001600160a01b0316634626402b6040518163ffffffff1660e01b815260040160206040518083038186803b158015610e8a57600080fd5b505afa158015610e9e573d6000803e3d6000fd5b505050506040513d601f19601f82011682018060405250810190610ec291906126fb565b9050600060ff831615610f02576064610ede60ff851687612718565b610ee89190612737565b600654909150610f02906001600160a01b03168383611994565b60007f00000000000000000000000000000000000000000000000000000000000000006001600160a01b0316636e88a7bd6040518163ffffffff1660e01b815260040160206040518083038186803b158015610f5d57600080fd5b505afa158015610f71573d6000803e3d6000fd5b505050506040513d601f19601f82011682018060405250810190610f9591906126d8565b60ff16905060006001600160a01b03881615801590610fb45750600082115b15610fe9576064610fc58389612718565b610fcf9190612737565b600654909150610fe9906001600160a01b03168983611994565b80610ff484896126c1565b610ffe91906126c1565b436000908152600f60205260408120805490919061101d9084906126a9565b9091555050600e8054600181018255600091909152437fbb7b4a454dc3493923482f07822329ed19e8244eff582cc204f8554c3620c3fd9091015550505050505b61107a8585600160405180602001604052806000815250611894565b6000848152600a6020526040902054156110b3576000848152600a602052604081208054600192906110ad9084906126c1565b90915550505b600754604080519182526020820186905281018390527fcf26c900a2bf5c38a7a8b59e617b948b9d1ec327f0a9d372f85d9668971d5b9d9060600160405180910390a16006546040516370a0823160e01b81526001600160a01b03909116906370a0823190611126903090600401611f88565b60206040518083038186803b15801561113e57600080fd5b505afa158015611152573d6000803e3d6000fd5b505050506040513d601f19601f820116820180604052508101906111769190612690565b600d555050505050565b33611189610970565b6001600160a01b0316146111af5760405162461bcd60e51b81526004016104899061262d565b6111b88161183c565b50600754600b805460018181019092557f0175b7a638427703f0dbe7bb9bbf987a2551717b34e79f33b5b1008d1fa01db90191909155600c80549182018155600052437fdf6966c971051c3d54ec59162606531493a51404a002842f56009d7e5cf4a8c790910155565b6001600160a01b03851633148061123e575061123e85336103ba565b61129c5760405162461bcd60e51b815260206004820152602960248201527f455243313135353a2063616c6c6572206973206e6f74206f776e6572206e6f7260448201526808185c1c1c9bdd995960ba1b6064820152608401610489565b6106308585858585611abe565b336112b2610970565b6001600160a01b0316146112d85760405162461bcd60e51b81526004016104899061262d565b6001600160a01b03811661133d5760405162461bcd60e51b815260206004820152602660248201527f4f776e61626c653a206e6577206f776e657220697320746865207a65726f206160448201526564647265737360d01b6064820152608401610489565b611346816116a9565b50565b81518351146113ab5760405162461bcd60e51b815260206004820152602860248201527f455243313135353a2069647320616e6420616d6f756e7473206c656e677468206044820152670dad2e6dac2e8c6d60c31b6064820152608401610489565b6001600160a01b0384166113d15760405162461bcd60e51b815260040161048990612759565b336113e0818787878787611bcd565b60005b84518110156114c9576000858281518110611400576114006125e6565b60200260200101519050600085838151811061141e5761141e6125e6565b60209081029190910181015160008481526001835260408082206001600160a01b038e16835290935291909120549091508181101561146f5760405162461bcd60e51b81526004016104899061279e565b60008381526001602090815260408083206001600160a01b038e8116855292528083208585039055908b168252812080548492906114ae9084906126a9565b92505081905550505050806114c290612612565b90506113e3565b50846001600160a01b0316866001600160a01b0316826001600160a01b03167f4a39dc06d4c0dbc64b70af90fd698a233a518aa5d07e595d983b8c0526c8f7fb87876040516115199291906127e8565b60405180910390a461152f818787878787611c8d565b505050505050565b6002600454141561158a5760405162461bcd60e51b815260206004820152601f60248201527f5265656e7472616e637947756172643a207265656e7472616e742063616c6c006044820152606401610489565b6002600455600061159a826116f9565b9050600081116115df5760405162461bcd60e51b815260206004820152601060248201526f4e4f204645455320544f20434c41494d60801b6044820152606401610489565b6006546115f6906001600160a01b03168383611994565b6006546040516370a0823160e01b81526001600160a01b03909116906370a0823190611626903090600401611f88565b60206040518083038186803b15801561163e57600080fd5b505afa158015611652573d6000803e3d6000fd5b505050506040513d601f19601f820116820180604052508101906116769190612690565b600d556116846001436126c1565b6001600160a01b03909216600090815260106020526040902091909155506001600455565b600080546001600160a01b038381166001600160a01b0319831681178455604051919092169283917f8be0079c531659141344cd1fd0a4f28419497f9722a3daafe3b4186f6b6457e09190a35050565b600080611707836000610421565b90506000811161174d5760405162461bcd60e51b81526020600482015260116024820152704e4f20524947485420544f20434c41494d60781b6044820152606401610489565b6000805b600e54811015611812576001600160a01b038516600090815260106020526040902054600e805483908110611788576117886125e6565b90600052602060002001541180156117bc575043600e82815481106117af576117af6125e6565b9060005260206000200154105b1561180057600f6000600e83815481106117d8576117d86125e6565b9060005260206000200154815260200190815260200160002054826117fd91906126a9565b91505b8061180a81612612565b915050611751565b50600061182783670de0b6b3a7640000612737565b90506118338183612737565b95945050505050565b8060001a60f81b6001600160f81b03191661188f5760405162461bcd60e51b8152602060048201526013602482015272121054d20810d0539393d50810914813955313606a1b6044820152606401610489565b600755565b6001600160a01b0384166118f45760405162461bcd60e51b815260206004820152602160248201527f455243313135353a206d696e7420746f20746865207a65726f206164647265736044820152607360f81b6064820152608401610489565b336119148160008761190588611df8565b61190e88611df8565b87611bcd565b60008481526001602090815260408083206001600160a01b0389168452909152812080548592906119469084906126a9565b909155505060408051858152602081018590526001600160a01b0380881692600092918516916000805160206129f4833981519152910160405180910390a461063081600087878787611e43565b604080516001600160a01b038481166024830152604480830185905283518084039091018152606490920183526020820180516001600160e01b031663a9059cbb60e01b17905291516000928392908716916119f0919061280d565b6000604051808303816000865af19150503d8060008114611a2d576040519150601f19603f3d011682016040523d82523d6000602084013e611a32565b606091505b5091509150818015611a5c575080511580611a5c575080806020019051810190611a5c9190612829565b6106305760405162461bcd60e51b815260206004820152602d60248201527f5472616e7366657248656c7065723a3a736166655472616e736665723a20747260448201526c185b9cd9995c8819985a5b1959609a1b6064820152608401610489565b6001600160a01b038416611ae45760405162461bcd60e51b815260040161048990612759565b33611af481878761190588611df8565b60008481526001602090815260408083206001600160a01b038a16845290915290205483811015611b375760405162461bcd60e51b81526004016104899061279e565b60008581526001602090815260408083206001600160a01b038b8116855292528083208785039055908816825281208054869290611b769084906126a9565b909155505060408051868152602081018690526001600160a01b03808916928a821692918616916000805160206129f4833981519152910160405180910390a4611bc4828888888888611e43565b50505050505050565b60005b8351811015611bc457838181518110611beb57611beb6125e6565b602002602001015160001415611c7b57600e5415611c7b576000611c0e876116f9565b90508015611c1f57611c1f87611537565b6000611c2c876000610421565b1115611c54576000611c3d876116f9565b90508015611c4e57611c4e87611537565b50611c79565b611c5f6001436126c1565b6001600160a01b0387166000908152601060205260409020555b505b80611c8581612612565b915050611bd0565b6001600160a01b0384163b1561152f5760405163bc197c8160e01b81526001600160a01b0385169063bc197c8190611cd19089908990889088908890600401612846565b602060405180830381600087803b158015611ceb57600080fd5b505af1925050508015611d1b575060408051601f3d908101601f19168201909252611d18918101906128a4565b60015b611dc857611d276128c1565b806308c379a01415611d615750611d3c6128dd565b80611d475750611d63565b8060405162461bcd60e51b8152600401610489919061200d565b505b60405162461bcd60e51b815260206004820152603460248201527f455243313135353a207472616e7366657220746f206e6f6e20455243313135356044820152732932b1b2b4bb32b91034b6b83632b6b2b73a32b960611b6064820152608401610489565b6001600160e01b0319811663bc197c8160e01b14611bc45760405162461bcd60e51b815260040161048990612966565b60408051600180825281830190925260609160009190602080830190803683370190505090508281600081518110611e3257611e326125e6565b602090810291909101015292915050565b6001600160a01b0384163b1561152f5760405163f23a6e6160e01b81526001600160a01b0385169063f23a6e6190611e8790899089908890889088906004016129ae565b602060405180830381600087803b158015611ea157600080fd5b505af1925050508015611ed1575060408051601f3d908101601f19168201909252611ece918101906128a4565b60015b611edd57611d276128c1565b6001600160e01b0319811663f23a6e6160e01b14611bc45760405162461bcd60e51b815260040161048990612966565b6001600160a01b038116811461134657600080fd5b60008060408385031215611f3557600080fd5b8235611f4081611f0d565b946020939093013593505050565b6001600160e01b03198116811461134657600080fd5b600060208284031215611f7657600080fd5b8135611f8181611f4e565b9392505050565b6001600160a01b0391909116815260200190565b600060208284031215611fae57600080fd5b5035919050565b60005b83811015611fd0578181015183820152602001611fb8565b838111156109105750506000910152565b60008151808452611ff9816020860160208601611fb5565b601f01601f19169290920160200192915050565b602081526000611f816020830184611fe1565b634e487b7160e01b600052604160045260246000fd5b601f8201601f191681016001600160401b038111828210171561205b5761205b612020565b6040525050565b60006001600160401b0382111561207b5761207b612020565b5060051b60200190565b600082601f83011261209657600080fd5b813560206120a382612062565b6040516120b08282612036565b83815260059390931b85018201928281019150868411156120d057600080fd5b8286015b848110156120eb57803583529183019183016120d4565b509695505050505050565b600082601f83011261210757600080fd5b81356001600160401b0381111561212057612120612020565b604051612137601f8301601f191660200182612036565b81815284602083860101111561214c57600080fd5b816020850160208301376000918101602001919091529392505050565b600080600080600060a0868803121561218157600080fd5b853561218c81611f0d565b9450602086013561219c81611f0d565b935060408601356001600160401b03808211156121b857600080fd5b6121c489838a01612085565b945060608801359150808211156121da57600080fd5b6121e689838a01612085565b935060808801359150808211156121fc57600080fd5b50612209888289016120f6565b9150509295509295909350565b6000806040838503121561222957600080fd5b82356001600160401b038082111561224057600080fd5b818501915085601f83011261225457600080fd5b8135602061226182612062565b60405161226e8282612036565b83815260059390931b850182019282810191508984111561228e57600080fd5b948201945b838610156122b55785356122a681611f0d565b82529482019490820190612293565b965050860135925050808211156122cb57600080fd5b506122d885828601612085565b9150509250929050565b600081518084526020808501945080840160005b83811015612312578151875295820195908201906001016122f6565b509495945050505050565b602081526000611f8160208301846122e2565b60008060006060848603121561234557600080fd5b505081359360208301359350604090920135919050565b801515811461134657600080fd5b6000806040838503121561237d57600080fd5b823561238881611f0d565b915060208301356123988161235c565b809150509250929050565b60008083601f8401126123b557600080fd5b5081356001600160401b038111156123cc57600080fd5b6020830191508360208260051b85010111156123e757600080fd5b9250929050565b600080600080600080600080600060c08a8c03121561240c57600080fd5b8935985060208a01356001600160401b038082111561242a57600080fd5b6124368d838e016123a3565b909a50985060408c013591508082111561244f57600080fd5b61245b8d838e016123a3565b909850965060608c013591508082111561247457600080fd5b506124818c828d016123a3565b90955093505060808a013561249581611f0d565b915060a08a01356124a581611f0d565b809150509295985092959850929598565b6000806000606084860312156124cb57600080fd5b83356124d681611f0d565b92506020840135915060408401356124ed81611f0d565b809150509250925092565b60006020828403121561250a57600080fd5b8135611f8181611f0d565b6000806040838503121561252857600080fd5b823561253381611f0d565b9150602083013561239881611f0d565b600080600080600060a0868803121561255b57600080fd5b853561256681611f0d565b9450602086013561257681611f0d565b9350604086013592506060860135915060808601356001600160401b0381111561259f57600080fd5b612209888289016120f6565b600181811c908216806125bf57607f821691505b602082108114156125e057634e487b7160e01b600052602260045260246000fd5b50919050565b634e487b7160e01b600052603260045260246000fd5b634e487b7160e01b600052601160045260246000fd5b6000600019821415612626576126266125fc565b5060010190565b6020808252818101527f4f776e61626c653a2063616c6c6572206973206e6f7420746865206f776e6572604082015260600190565b602080825260149082015273494e56414c4944204c4943454e5345205459504560601b604082015260600190565b6000602082840312156126a257600080fd5b5051919050565b600082198211156126bc576126bc6125fc565b500190565b6000828210156126d3576126d36125fc565b500390565b6000602082840312156126ea57600080fd5b815160ff81168114611f8157600080fd5b60006020828403121561270d57600080fd5b8151611f8181611f0d565b6000816000190483118215151615612732576127326125fc565b500290565b60008261275457634e487b7160e01b600052601260045260246000fd5b500490565b60208082526025908201527f455243313135353a207472616e7366657220746f20746865207a65726f206164604082015264647265737360d81b606082015260800190565b6020808252602a908201527f455243313135353a20696e73756666696369656e742062616c616e636520666f60408201526939103a3930b739b332b960b11b606082015260800190565b6040815260006127fb60408301856122e2565b828103602084015261183381856122e2565b6000825161281f818460208701611fb5565b9190910192915050565b60006020828403121561283b57600080fd5b8151611f818161235c565b6001600160a01b0386811682528516602082015260a060408201819052600090612872908301866122e2565b828103606084015261288481866122e2565b905082810360808401526128988185611fe1565b98975050505050505050565b6000602082840312156128b657600080fd5b8151611f8181611f4e565b600060033d11156128da5760046000803e5060005160e01c5b90565b600060443d10156128eb5790565b6040516003193d81016004833e81513d6001600160401b03808311602484018310171561291a57505050505090565b82850191508151818111156129325750505050505090565b843d870101602082850101111561294c5750505050505090565b61295b60208286010187612036565b509095945050505050565b60208082526028908201527f455243313135353a204552433131353552656365697665722072656a656374656040820152676420746f6b656e7360c01b606082015260800190565b6001600160a01b03868116825285166020820152604081018490526060810183905260a0608082018190526000906129e890830184611fe1565b97965050505050505056fec3d58168c5ae7397731d063d5bbf3d657854427343f4c083240f7aacaa2d0f62a2646970667358221220c45042c5058d3eb03b19d040ebad8c99523e7ec5d1bd1ad9af9adbabc5b84b1a64736f6c6343000809003368747470733a2f2f6c6963656e73696e672d70726f746f636f6c2e76657263656c2e6170702f6170692f6c6963656e73652f7b69647da2646970667358221220fb54fe9039514100d18dc3875b5f60fd54ad66bdb5f96ab287c767b609b0e4fc64736f6c63430008090033",
  "immutableReferences": {
    "58": [
      {
        "length": 32,
        "start": 446
      },
      {
        "length": 32,
        "start": 1472
      }
    ]
  },
  "source": "// SPDX-License-Identifier: BUSL-1.1\npragma solidity >=0.8.0;\n\nimport '@openzeppelin/contracts/utils/Create2.sol';\nimport '@openzeppelin/contracts/access/Ownable.sol';\n\nimport './License.sol';\nimport './interfaces/ILicense.sol';\n\n// @author Julian Peters\n// @title Factory\ncontract Factory is Ownable {\n    event LicenseCreated(\n        bytes32 ipfsHash,\n        uint256[] licenseTypes,\n        uint256[] licensePrices,\n        uint256[] licenseSupply,\n        address licenseContract,\n        address creator\n    );\n\n    uint8 public treasuryFee = 10;\n    uint8 public referrerFee = 10;\n\n    address public treasuryWallet;\n    address public immutable USDC;\n\n    // @param _USDC Address of the USDC contract\n    constructor(address _USDC) {\n        treasuryWallet = msg.sender;\n        USDC = _USDC;\n    }\n\n    bytes32[] public availableLicenseTypes;\n\n    address[] public allLicenses;\n    mapping(address => uint256) public licensePosition;\n\n    function availableLicenseTypesLength() external view returns (uint256) {\n        return availableLicenseTypes.length;\n    }\n\n    function allLicensesLength() external view returns (uint256) {\n        return allLicenses.length;\n    }\n\n    // @dev Create new Licene.sol smart contract\n    // @param ipfsHash - IPFS hash of the content to license\n    // @param licenseTypes - array of available license types\n    // @param licensePrices - array of license prices in USDC for each license type\n    // @param licenseSupply - array of max. available amount of each license type\n    // @return Address of the created license contract\n    function createLicense(\n        bytes32 ipfsHash,\n        uint256[] calldata licenseTypes,\n        uint256[] calldata licensePrices,\n        uint256[] calldata licenseSupply\n    ) external returns (address licenseContract) {\n        // @dev Deterministic address\n        bytes memory bytecode = type(License).creationCode;\n        licenseContract = Create2.deploy(0, ipfsHash, bytecode);\n        // @dev Require that license with identical ipfsHash does not exist yet\n        require(licensePosition[licenseContract] == 0, 'LICENSE EXISTS');\n        ILicense(licenseContract).initialize(\n            ipfsHash,\n            licenseTypes,\n            licensePrices,\n            licenseSupply,\n            msg.sender,\n            USDC\n        );\n        // @dev Save license contract address\n        allLicenses.push(licenseContract);\n        licensePosition[licenseContract] = allLicenses.length;\n        emit LicenseCreated(\n            ipfsHash,\n            licenseTypes,\n            licensePrices,\n            licenseSupply,\n            licenseContract,\n            msg.sender\n        );\n        return licenseContract;\n    }\n\n    function setTreasuryFee(uint8 _treasuryFee) external onlyOwner {\n        // @notice Fee can be set to a max. of 15\n        require(_treasuryFee <= 15, 'FEE CANNOT BE HIGHER THAN 15');\n        treasuryFee = _treasuryFee;\n    }\n\n    function setReferrerFee(uint8 _referrerFee) external onlyOwner {\n        // @notice Fee can be set to a max. of 15\n        require(_referrerFee <= 15, 'FEE CANNOT BE HIGHER THAN 15');\n        referrerFee = _referrerFee;\n    }\n\n    function setTreasuryWallet(address _treasuryWallet) external onlyOwner {\n        treasuryWallet = _treasuryWallet;\n    }\n\n    // @param ipfsHash IPFS hash with the content of the standard license to add\n    function addLicenseType(bytes32 ipfsHash) external onlyOwner {\n        availableLicenseTypes.push(ipfsHash);\n    }\n}\n",
  "sourcePath": "/Users/jp/Documents/GitHub/learn-truffle/contracts/Factory.sol",
  "compiler": {
    "name": "solc",
    "version": "0.8.9+commit.e5eed63a.Emscripten.clang"
  },
  "schemaVersion": "3.3.4",
  "updatedAt": "2021-10-03T19:19:39.677Z",
  "networkType": "ethereum",
  "devdoc": {
    "kind": "dev",
    "methods": {
      "owner()": {
        "details": "Returns the address of the current owner."
      },
      "renounceOwnership()": {
        "details": "Leaves the contract without owner. It will not be possible to call `onlyOwner` functions anymore. Can only be called by the current owner. NOTE: Renouncing ownership will leave the contract without an owner, thereby removing any functionality that is only available to the owner."
      },
      "transferOwnership(address)": {
        "details": "Transfers ownership of the contract to a new account (`newOwner`). Can only be called by the current owner."
      }
    },
    "version": 1
  },
  "userdoc": {
    "kind": "user",
    "methods": {},
    "version": 1
  }
}