{
  "contractName": "License",
  "abi": [
    {
      "inputs": [],
      "stateMutability": "nonpayable",
      "type": "constructor"
    },
    {
      "anonymous": false,
      "inputs": [
        {
          "indexed": true,
          "internalType": "address",
          "name": "account",
          "type": "address"
        },
        {
          "indexed": true,
          "internalType": "address",
          "name": "operator",
          "type": "address"
        },
        {
          "indexed": false,
          "internalType": "bool",
          "name": "approved",
          "type": "bool"
        }
      ],
      "name": "ApprovalForAll",
      "type": "event"
    },
    {
      "anonymous": false,
      "inputs": [
        {
          "indexed": false,
          "internalType": "bytes32",
          "name": "ipfsHash",
          "type": "bytes32"
        },
        {
          "indexed": false,
          "internalType": "uint256",
          "name": "licenseType",
          "type": "uint256"
        },
        {
          "indexed": false,
          "internalType": "uint256",
          "name": "licensePrice",
          "type": "uint256"
        }
      ],
      "name": "LicenseMint",
      "type": "event"
    },
    {
      "anonymous": false,
      "inputs": [
        {
          "indexed": true,
          "internalType": "address",
          "name": "previousOwner",
          "type": "address"
        },
        {
          "indexed": true,
          "internalType": "address",
          "name": "newOwner",
          "type": "address"
        }
      ],
      "name": "OwnershipTransferred",
      "type": "event"
    },
    {
      "anonymous": false,
      "inputs": [
        {
          "indexed": true,
          "internalType": "address",
          "name": "operator",
          "type": "address"
        },
        {
          "indexed": true,
          "internalType": "address",
          "name": "from",
          "type": "address"
        },
        {
          "indexed": true,
          "internalType": "address",
          "name": "to",
          "type": "address"
        },
        {
          "indexed": false,
          "internalType": "uint256[]",
          "name": "ids",
          "type": "uint256[]"
        },
        {
          "indexed": false,
          "internalType": "uint256[]",
          "name": "values",
          "type": "uint256[]"
        }
      ],
      "name": "TransferBatch",
      "type": "event"
    },
    {
      "anonymous": false,
      "inputs": [
        {
          "indexed": true,
          "internalType": "address",
          "name": "operator",
          "type": "address"
        },
        {
          "indexed": true,
          "internalType": "address",
          "name": "from",
          "type": "address"
        },
        {
          "indexed": true,
          "internalType": "address",
          "name": "to",
          "type": "address"
        },
        {
          "indexed": false,
          "internalType": "uint256",
          "name": "id",
          "type": "uint256"
        },
        {
          "indexed": false,
          "internalType": "uint256",
          "name": "value",
          "type": "uint256"
        }
      ],
      "name": "TransferSingle",
      "type": "event"
    },
    {
      "anonymous": false,
      "inputs": [
        {
          "indexed": false,
          "internalType": "string",
          "name": "value",
          "type": "string"
        },
        {
          "indexed": true,
          "internalType": "uint256",
          "name": "id",
          "type": "uint256"
        }
      ],
      "name": "URI",
      "type": "event"
    },
    {
      "inputs": [],
      "name": "USDC",
      "outputs": [
        {
          "internalType": "address",
          "name": "",
          "type": "address"
        }
      ],
      "stateMutability": "view",
      "type": "function"
    },
    {
      "inputs": [
        {
          "internalType": "address",
          "name": "account",
          "type": "address"
        },
        {
          "internalType": "uint256",
          "name": "id",
          "type": "uint256"
        }
      ],
      "name": "balanceOf",
      "outputs": [
        {
          "internalType": "uint256",
          "name": "",
          "type": "uint256"
        }
      ],
      "stateMutability": "view",
      "type": "function"
    },
    {
      "inputs": [
        {
          "internalType": "address[]",
          "name": "accounts",
          "type": "address[]"
        },
        {
          "internalType": "uint256[]",
          "name": "ids",
          "type": "uint256[]"
        }
      ],
      "name": "balanceOfBatch",
      "outputs": [
        {
          "internalType": "uint256[]",
          "name": "",
          "type": "uint256[]"
        }
      ],
      "stateMutability": "view",
      "type": "function"
    },
    {
      "inputs": [
        {
          "internalType": "uint256",
          "name": "",
          "type": "uint256"
        }
      ],
      "name": "blocksWithEarnings",
      "outputs": [
        {
          "internalType": "uint256",
          "name": "",
          "type": "uint256"
        }
      ],
      "stateMutability": "view",
      "type": "function"
    },
    {
      "inputs": [
        {
          "internalType": "uint256",
          "name": "",
          "type": "uint256"
        }
      ],
      "name": "changedInBlock",
      "outputs": [
        {
          "internalType": "uint256",
          "name": "",
          "type": "uint256"
        }
      ],
      "stateMutability": "view",
      "type": "function"
    },
    {
      "inputs": [],
      "name": "creator",
      "outputs": [
        {
          "internalType": "address",
          "name": "",
          "type": "address"
        }
      ],
      "stateMutability": "view",
      "type": "function"
    },
    {
      "inputs": [
        {
          "internalType": "uint256",
          "name": "",
          "type": "uint256"
        }
      ],
      "name": "earnedFees",
      "outputs": [
        {
          "internalType": "uint256",
          "name": "",
          "type": "uint256"
        }
      ],
      "stateMutability": "view",
      "type": "function"
    },
    {
      "inputs": [],
      "name": "factory",
      "outputs": [
        {
          "internalType": "address",
          "name": "",
          "type": "address"
        }
      ],
      "stateMutability": "view",
      "type": "function"
    },
    {
      "inputs": [],
      "name": "ipfsHash",
      "outputs": [
        {
          "internalType": "bytes32",
          "name": "",
          "type": "bytes32"
        }
      ],
      "stateMutability": "view",
      "type": "function"
    },
    {
      "inputs": [
        {
          "internalType": "address",
          "name": "account",
          "type": "address"
        },
        {
          "internalType": "address",
          "name": "operator",
          "type": "address"
        }
      ],
      "name": "isApprovedForAll",
      "outputs": [
        {
          "internalType": "bool",
          "name": "",
          "type": "bool"
        }
      ],
      "stateMutability": "view",
      "type": "function"
    },
    {
      "inputs": [
        {
          "internalType": "address",
          "name": "",
          "type": "address"
        }
      ],
      "name": "lastClaimBlock",
      "outputs": [
        {
          "internalType": "uint256",
          "name": "",
          "type": "uint256"
        }
      ],
      "stateMutability": "view",
      "type": "function"
    },
    {
      "inputs": [
        {
          "internalType": "uint256",
          "name": "",
          "type": "uint256"
        }
      ],
      "name": "licenseTypeExists",
      "outputs": [
        {
          "internalType": "bool",
          "name": "",
          "type": "bool"
        }
      ],
      "stateMutability": "view",
      "type": "function"
    },
    {
      "inputs": [
        {
          "internalType": "uint256",
          "name": "",
          "type": "uint256"
        }
      ],
      "name": "licenseTypeToLimitRemaining",
      "outputs": [
        {
          "internalType": "uint256",
          "name": "",
          "type": "uint256"
        }
      ],
      "stateMutability": "view",
      "type": "function"
    },
    {
      "inputs": [
        {
          "internalType": "uint256",
          "name": "",
          "type": "uint256"
        }
      ],
      "name": "licenseTypeToPrice",
      "outputs": [
        {
          "internalType": "uint256",
          "name": "",
          "type": "uint256"
        }
      ],
      "stateMutability": "view",
      "type": "function"
    },
    {
      "inputs": [],
      "name": "owner",
      "outputs": [
        {
          "internalType": "address",
          "name": "",
          "type": "address"
        }
      ],
      "stateMutability": "view",
      "type": "function"
    },
    {
      "inputs": [
        {
          "internalType": "uint256",
          "name": "",
          "type": "uint256"
        }
      ],
      "name": "pastIpfsHashes",
      "outputs": [
        {
          "internalType": "bytes32",
          "name": "",
          "type": "bytes32"
        }
      ],
      "stateMutability": "view",
      "type": "function"
    },
    {
      "inputs": [],
      "name": "renounceOwnership",
      "outputs": [],
      "stateMutability": "nonpayable",
      "type": "function"
    },
    {
      "inputs": [
        {
          "internalType": "address",
          "name": "from",
          "type": "address"
        },
        {
          "internalType": "address",
          "name": "to",
          "type": "address"
        },
        {
          "internalType": "uint256[]",
          "name": "ids",
          "type": "uint256[]"
        },
        {
          "internalType": "uint256[]",
          "name": "amounts",
          "type": "uint256[]"
        },
        {
          "internalType": "bytes",
          "name": "data",
          "type": "bytes"
        }
      ],
      "name": "safeBatchTransferFrom",
      "outputs": [],
      "stateMutability": "nonpayable",
      "type": "function"
    },
    {
      "inputs": [
        {
          "internalType": "address",
          "name": "from",
          "type": "address"
        },
        {
          "internalType": "address",
          "name": "to",
          "type": "address"
        },
        {
          "internalType": "uint256",
          "name": "id",
          "type": "uint256"
        },
        {
          "internalType": "uint256",
          "name": "amount",
          "type": "uint256"
        },
        {
          "internalType": "bytes",
          "name": "data",
          "type": "bytes"
        }
      ],
      "name": "safeTransferFrom",
      "outputs": [],
      "stateMutability": "nonpayable",
      "type": "function"
    },
    {
      "inputs": [
        {
          "internalType": "address",
          "name": "operator",
          "type": "address"
        },
        {
          "internalType": "bool",
          "name": "approved",
          "type": "bool"
        }
      ],
      "name": "setApprovalForAll",
      "outputs": [],
      "stateMutability": "nonpayable",
      "type": "function"
    },
    {
      "inputs": [
        {
          "internalType": "bytes4",
          "name": "interfaceId",
          "type": "bytes4"
        }
      ],
      "name": "supportsInterface",
      "outputs": [
        {
          "internalType": "bool",
          "name": "",
          "type": "bool"
        }
      ],
      "stateMutability": "view",
      "type": "function"
    },
    {
      "inputs": [
        {
          "internalType": "address",
          "name": "newOwner",
          "type": "address"
        }
      ],
      "name": "transferOwnership",
      "outputs": [],
      "stateMutability": "nonpayable",
      "type": "function"
    },
    {
      "inputs": [
        {
          "internalType": "uint256",
          "name": "",
          "type": "uint256"
        }
      ],
      "name": "uri",
      "outputs": [
        {
          "internalType": "string",
          "name": "",
          "type": "string"
        }
      ],
      "stateMutability": "view",
      "type": "function"
    },
    {
      "inputs": [
        {
          "internalType": "uint256",
          "name": "_licenseType",
          "type": "uint256"
        },
        {
          "internalType": "uint256",
          "name": "_licensePrice",
          "type": "uint256"
        },
        {
          "internalType": "uint256",
          "name": "_licenseSupply",
          "type": "uint256"
        }
      ],
      "name": "addAvailableLicenseType",
      "outputs": [],
      "stateMutability": "nonpayable",
      "type": "function"
    },
    {
      "inputs": [
        {
          "internalType": "bytes32",
          "name": "_ipfsHash",
          "type": "bytes32"
        },
        {
          "internalType": "uint256[]",
          "name": "_licenseTypes",
          "type": "uint256[]"
        },
        {
          "internalType": "uint256[]",
          "name": "_licensePrices",
          "type": "uint256[]"
        },
        {
          "internalType": "uint256[]",
          "name": "_licenseSupply",
          "type": "uint256[]"
        },
        {
          "internalType": "address",
          "name": "sender",
          "type": "address"
        },
        {
          "internalType": "address",
          "name": "_USDC",
          "type": "address"
        }
      ],
      "name": "initialize",
      "outputs": [],
      "stateMutability": "nonpayable",
      "type": "function"
    },
    {
      "inputs": [
        {
          "internalType": "bytes32",
          "name": "_ipfsHash",
          "type": "bytes32"
        }
      ],
      "name": "editIpfsHash",
      "outputs": [],
      "stateMutability": "nonpayable",
      "type": "function"
    },
    {
      "inputs": [
        {
          "internalType": "address",
          "name": "buyer",
          "type": "address"
        },
        {
          "internalType": "uint256",
          "name": "licenseType",
          "type": "uint256"
        },
        {
          "internalType": "address",
          "name": "referrerWallet",
          "type": "address"
        }
      ],
      "name": "buyLicense",
      "outputs": [],
      "stateMutability": "nonpayable",
      "type": "function"
    },
    {
      "inputs": [],
      "name": "claimable",
      "outputs": [
        {
          "internalType": "uint256",
          "name": "totalClaimable",
          "type": "uint256"
        }
      ],
      "stateMutability": "view",
      "type": "function"
    },
    {
      "inputs": [],
      "name": "claim",
      "outputs": [],
      "stateMutability": "nonpayable",
      "type": "function"
    }
  ],
  "bytecode": "0x60a06040526000600d553480156200001657600080fd5b5060405180606001604052806036815260200162002c2b603691396200003c3362000057565b6200004781620000a7565b50600160045533608052620001a3565b600080546001600160a01b038381166001600160a01b0319831681178455604051919092169283917f8be0079c531659141344cd1fd0a4f28419497f9722a3daafe3b4186f6b6457e09190a35050565b8051620000bc906003906020840190620000c0565b5050565b828054620000ce9062000166565b90600052602060002090601f016020900481019282620000f257600085556200013d565b82601f106200010d57805160ff19168380011785556200013d565b828001600101855582156200013d579182015b828111156200013d57825182559160200191906001019062000120565b506200014b9291506200014f565b5090565b5b808211156200014b576000815560010162000150565b600181811c908216806200017b57607f821691505b602082108114156200019d57634e487b7160e01b600052602260045260246000fd5b50919050565b608051612a49620001e26000396000818161032e0152818161081801528181610a8101528181610d9e01528181610e330152610f060152612a496000f3fe608060405234801561001057600080fd5b506004361061015e5760003560e01c8062fdd58e1461016357806301ffc9a71461018957806302d05d3f146101ac5780630e89341c146101cc57806327334b19146101ec5780632eb2c2d61461020c5780634d0ed231146102215780634e1273f4146102445780634e71d92d1461026457806354631f001461026c578063715018a61461027f57806384783cd41461028757806389a302711461029a5780638da5cb5b146102ad578063a22cb465146102b5578063a3611b71146102c8578063af38d757146102db578063b16d3ee0146102e3578063b20b3c64146102f6578063c0892d9c14610316578063c45a015514610329578063c623674f14610350578063d41a011814610359578063e64ff9371461036c578063e93a6c901461038c578063e985e9c5146103ac578063eaf1b6c9146103e8578063f242432a146103fb578063f2fde38b1461040e575b600080fd5b610176610171366004611f22565b610421565b6040519081526020015b60405180910390f35b61019c610197366004611f64565b6104ba565b6040519015158152602001610180565b6005546101bf906001600160a01b031681565b6040516101809190611f88565b6101df6101da366004611f9c565b61050c565b604051610180919061200d565b6101766101fa366004611f9c565b600a6020526000908152604090205481565b61021f61021a366004612169565b6105a0565b005b61019c61022f366004611f9c565b60086020526000908152604090205460ff1681565b610257610252366004612216565b610637565b604051610180919061231d565b61021f610760565b61021f61027a366004612330565b61076b565b61021f610916565b610176610295366004611f9c565b61094f565b6006546101bf906001600160a01b031681565b6101bf610970565b61021f6102c336600461236a565b61097f565b6101766102d6366004611f9c565b610a56565b610176610a66565b61021f6102f13660046123ee565b610a76565b610176610304366004611f9c565b60096020526000908152604090205481565b610176610324366004611f9c565b610c12565b6101bf7f000000000000000000000000000000000000000000000000000000000000000081565b61017660075481565b61021f6103673660046124b6565b610c22565b61017661037a366004611f9c565b600f6020526000908152604090205481565b61017661039a3660046124f8565b60106020526000908152604090205481565b61019c6103ba366004612515565b6001600160a01b03918216600090815260026020908152604080832093909416825291909152205460ff1690565b61021f6103f6366004611f9c565b611180565b61021f610409366004612543565b611222565b61021f61041c3660046124f8565b6112a9565b60006001600160a01b0383166104925760405162461bcd60e51b815260206004820152602b60248201527f455243313135353a2062616c616e636520717565727920666f7220746865207a60448201526a65726f206164647265737360a81b60648201526084015b60405180910390fd5b5060009081526001602090815260408083206001600160a01b03949094168352929052205490565b60006001600160e01b03198216636cdb3d1360e11b14806104eb57506001600160e01b031982166303a24d0760e21b145b8061050657506301ffc9a760e01b6001600160e01b03198316145b92915050565b60606003805461051b906125ab565b80601f0160208091040260200160405190810160405280929190818152602001828054610547906125ab565b80156105945780601f1061056957610100808354040283529160200191610594565b820191906000526020600020905b81548152906001019060200180831161057757829003601f168201915b50505050509050919050565b6001600160a01b0385163314806105bc57506105bc85336103ba565b6106235760405162461bcd60e51b815260206004820152603260248201527f455243313135353a207472616e736665722063616c6c6572206973206e6f74206044820152711bdddb995c881b9bdc88185c1c1c9bdd995960721b6064820152608401610489565b6106308585858585611349565b5050505050565b6060815183511461069c5760405162461bcd60e51b815260206004820152602960248201527f455243313135353a206163636f756e747320616e6420696473206c656e677468604482015268040dad2e6dac2e8c6d60bb1b6064820152608401610489565b600083516001600160401b038111156106b7576106b7612020565b6040519080825280602002602001820160405280156106e0578160200160208202803683370190505b50905060005b84518110156107585761072b858281518110610704576107046125e6565b602002602001015185838151811061071e5761071e6125e6565b6020026020010151610421565b82828151811061073d5761073d6125e6565b602090810291909101015261075181612612565b90506106e6565b509392505050565b61076933611537565b565b33610774610970565b6001600160a01b03161461079a5760405162461bcd60e51b81526004016104899061262d565b826107b75760405162461bcd60e51b815260040161048990612662565b60008381526008602052604090205460ff16156108145760405162461bcd60e51b815260206004820152601b60248201527a4c4943454e5345205459504520414c52454144592045584953545360281b6044820152606401610489565b60007f00000000000000000000000000000000000000000000000000000000000000006001600160a01b031663b5811ad26040518163ffffffff1660e01b815260040160206040518083038186803b15801561086f57600080fd5b505afa158015610883573d6000803e3d6000fd5b505050506040513d601f19601f820116820180604052508101906108a79190612690565b9050808411156108c95760405162461bcd60e51b815260040161048990612662565b6000848152600860209081526040808320805460ff19166001179055600990915290208390558115610910576109008260016126a9565b6000858152600a60205260409020555b50505050565b3361091f610970565b6001600160a01b0316146109455760405162461bcd60e51b81526004016104899061262d565b61076960006116a9565b600c818154811061095f57600080fd5b600091825260209091200154905081565b6000546001600160a01b031690565b336001600160a01b03831614156109ea5760405162461bcd60e51b815260206004820152602960248201527f455243313135353a2073657474696e6720617070726f76616c20737461747573604482015268103337b91039b2b63360b91b6064820152608401610489565b3360008181526002602090815260408083206001600160a01b03871680855290835292819020805460ff191686151590811790915590519081529192917f17307eab39ab6107e8899845ad3d59bd9653f200f220920489ca2b5937696c31910160405180910390a35050565b600e818154811061095f57600080fd5b6000610a71336116f9565b905090565b336001600160a01b037f00000000000000000000000000000000000000000000000000000000000000001614610ada5760405162461bcd60e51b81526020600482015260096024820152682327a92124a22222a760b91b6044820152606401610489565b600680546001600160a01b0319166001600160a01b0383161790558487148015610b0357508683145b610b415760405162461bcd60e51b815260206004820152600f60248201526e0988a9c8ea890409a92a69a82a8869608b1b6044820152606401610489565b60005b87811015610bb157610b9f898983818110610b6157610b616125e6565b90506020020135888884818110610b7a57610b7a6125e6565b90506020020135878785818110610b9357610b936125e6565b9050602002013561076b565b80610ba981612612565b915050610b44565b50610bbb8961183c565b610bdf826000670de0b6b3a764000060405180602001604052806000815250611894565b610be8826112a9565b50600580546001600160a01b0319166001600160a01b039290921691909117905550505050505050565b600b818154811061095f57600080fd5b60008281526008602052604090205460ff161515600114610c555760405162461bcd60e51b815260040161048990612662565b6000828152600a602052604090205460011415610caa5760405162461bcd60e51b81526020600482015260136024820152721352539508131253525508115610d151511151606a1b6044820152606401610489565b6000828152600960205260408082205460065491516370a0823160e01b81529092916001600160a01b0316906370a0823190610cea903090600401611f88565b60206040518083038186803b158015610d0257600080fd5b505afa158015610d16573d6000803e3d6000fd5b505050506040513d601f19601f82011682018060405250810190610d3a9190612690565b600d54909150610d4a83836126c1565b1015610d945760405162461bcd60e51b8152602060048201526019602482015278125394d551919250d251539508141056535153950814d15395603a1b6044820152606401610489565b811561105e5760007f00000000000000000000000000000000000000000000000000000000000000006001600160a01b031663cc32d1766040518163ffffffff1660e01b815260040160206040518083038186803b158015610df557600080fd5b505afa158015610e09573d6000803e3d6000fd5b505050506040513d601f19601f82011682018060405250810190610e2d91906126d8565b905060007f00000000000000000000000000000000000000000000000000000000000000006001600160a01b0316634626402b6040518163ffffffff1660e01b815260040160206040518083038186803b158015610e8a57600080fd5b505afa158015610e9e573d6000803e3d6000fd5b505050506040513d601f19601f82011682018060405250810190610ec291906126fb565b9050600060ff831615610f02576064610ede60ff851687612718565b610ee89190612737565b600654909150610f02906001600160a01b03168383611994565b60007f00000000000000000000000000000000000000000000000000000000000000006001600160a01b0316636e88a7bd6040518163ffffffff1660e01b815260040160206040518083038186803b158015610f5d57600080fd5b505afa158015610f71573d6000803e3d6000fd5b505050506040513d601f19601f82011682018060405250810190610f9591906126d8565b60ff16905060006001600160a01b03881615801590610fb45750600082115b15610fe9576064610fc58389612718565b610fcf9190612737565b600654909150610fe9906001600160a01b03168983611994565b80610ff484896126c1565b610ffe91906126c1565b436000908152600f60205260408120805490919061101d9084906126a9565b9091555050600e8054600181018255600091909152437fbb7b4a454dc3493923482f07822329ed19e8244eff582cc204f8554c3620c3fd9091015550505050505b61107a8585600160405180602001604052806000815250611894565b6000848152600a6020526040902054156110b3576000848152600a602052604081208054600192906110ad9084906126c1565b90915550505b600754604080519182526020820186905281018390527fcf26c900a2bf5c38a7a8b59e617b948b9d1ec327f0a9d372f85d9668971d5b9d9060600160405180910390a16006546040516370a0823160e01b81526001600160a01b03909116906370a0823190611126903090600401611f88565b60206040518083038186803b15801561113e57600080fd5b505afa158015611152573d6000803e3d6000fd5b505050506040513d601f19601f820116820180604052508101906111769190612690565b600d555050505050565b33611189610970565b6001600160a01b0316146111af5760405162461bcd60e51b81526004016104899061262d565b6111b88161183c565b50600754600b805460018181019092557f0175b7a638427703f0dbe7bb9bbf987a2551717b34e79f33b5b1008d1fa01db90191909155600c80549182018155600052437fdf6966c971051c3d54ec59162606531493a51404a002842f56009d7e5cf4a8c790910155565b6001600160a01b03851633148061123e575061123e85336103ba565b61129c5760405162461bcd60e51b815260206004820152602960248201527f455243313135353a2063616c6c6572206973206e6f74206f776e6572206e6f7260448201526808185c1c1c9bdd995960ba1b6064820152608401610489565b6106308585858585611abe565b336112b2610970565b6001600160a01b0316146112d85760405162461bcd60e51b81526004016104899061262d565b6001600160a01b03811661133d5760405162461bcd60e51b815260206004820152602660248201527f4f776e61626c653a206e6577206f776e657220697320746865207a65726f206160448201526564647265737360d01b6064820152608401610489565b611346816116a9565b50565b81518351146113ab5760405162461bcd60e51b815260206004820152602860248201527f455243313135353a2069647320616e6420616d6f756e7473206c656e677468206044820152670dad2e6dac2e8c6d60c31b6064820152608401610489565b6001600160a01b0384166113d15760405162461bcd60e51b815260040161048990612759565b336113e0818787878787611bcd565b60005b84518110156114c9576000858281518110611400576114006125e6565b60200260200101519050600085838151811061141e5761141e6125e6565b60209081029190910181015160008481526001835260408082206001600160a01b038e16835290935291909120549091508181101561146f5760405162461bcd60e51b81526004016104899061279e565b60008381526001602090815260408083206001600160a01b038e8116855292528083208585039055908b168252812080548492906114ae9084906126a9565b92505081905550505050806114c290612612565b90506113e3565b50846001600160a01b0316866001600160a01b0316826001600160a01b03167f4a39dc06d4c0dbc64b70af90fd698a233a518aa5d07e595d983b8c0526c8f7fb87876040516115199291906127e8565b60405180910390a461152f818787878787611c8d565b505050505050565b6002600454141561158a5760405162461bcd60e51b815260206004820152601f60248201527f5265656e7472616e637947756172643a207265656e7472616e742063616c6c006044820152606401610489565b6002600455600061159a826116f9565b9050600081116115df5760405162461bcd60e51b815260206004820152601060248201526f4e4f204645455320544f20434c41494d60801b6044820152606401610489565b6006546115f6906001600160a01b03168383611994565b6006546040516370a0823160e01b81526001600160a01b03909116906370a0823190611626903090600401611f88565b60206040518083038186803b15801561163e57600080fd5b505afa158015611652573d6000803e3d6000fd5b505050506040513d601f19601f820116820180604052508101906116769190612690565b600d556116846001436126c1565b6001600160a01b03909216600090815260106020526040902091909155506001600455565b600080546001600160a01b038381166001600160a01b0319831681178455604051919092169283917f8be0079c531659141344cd1fd0a4f28419497f9722a3daafe3b4186f6b6457e09190a35050565b600080611707836000610421565b90506000811161174d5760405162461bcd60e51b81526020600482015260116024820152704e4f20524947485420544f20434c41494d60781b6044820152606401610489565b6000805b600e54811015611812576001600160a01b038516600090815260106020526040902054600e805483908110611788576117886125e6565b90600052602060002001541180156117bc575043600e82815481106117af576117af6125e6565b9060005260206000200154105b1561180057600f6000600e83815481106117d8576117d86125e6565b9060005260206000200154815260200190815260200160002054826117fd91906126a9565b91505b8061180a81612612565b915050611751565b50600061182783670de0b6b3a7640000612737565b90506118338183612737565b95945050505050565b8060001a60f81b6001600160f81b03191661188f5760405162461bcd60e51b8152602060048201526013602482015272121054d20810d0539393d50810914813955313606a1b6044820152606401610489565b600755565b6001600160a01b0384166118f45760405162461bcd60e51b815260206004820152602160248201527f455243313135353a206d696e7420746f20746865207a65726f206164647265736044820152607360f81b6064820152608401610489565b336119148160008761190588611df8565b61190e88611df8565b87611bcd565b60008481526001602090815260408083206001600160a01b0389168452909152812080548592906119469084906126a9565b909155505060408051858152602081018590526001600160a01b0380881692600092918516916000805160206129f4833981519152910160405180910390a461063081600087878787611e43565b604080516001600160a01b038481166024830152604480830185905283518084039091018152606490920183526020820180516001600160e01b031663a9059cbb60e01b17905291516000928392908716916119f0919061280d565b6000604051808303816000865af19150503d8060008114611a2d576040519150601f19603f3d011682016040523d82523d6000602084013e611a32565b606091505b5091509150818015611a5c575080511580611a5c575080806020019051810190611a5c9190612829565b6106305760405162461bcd60e51b815260206004820152602d60248201527f5472616e7366657248656c7065723a3a736166655472616e736665723a20747260448201526c185b9cd9995c8819985a5b1959609a1b6064820152608401610489565b6001600160a01b038416611ae45760405162461bcd60e51b815260040161048990612759565b33611af481878761190588611df8565b60008481526001602090815260408083206001600160a01b038a16845290915290205483811015611b375760405162461bcd60e51b81526004016104899061279e565b60008581526001602090815260408083206001600160a01b038b8116855292528083208785039055908816825281208054869290611b769084906126a9565b909155505060408051868152602081018690526001600160a01b03808916928a821692918616916000805160206129f4833981519152910160405180910390a4611bc4828888888888611e43565b50505050505050565b60005b8351811015611bc457838181518110611beb57611beb6125e6565b602002602001015160001415611c7b57600e5415611c7b576000611c0e876116f9565b90508015611c1f57611c1f87611537565b6000611c2c876000610421565b1115611c54576000611c3d876116f9565b90508015611c4e57611c4e87611537565b50611c79565b611c5f6001436126c1565b6001600160a01b0387166000908152601060205260409020555b505b80611c8581612612565b915050611bd0565b6001600160a01b0384163b1561152f5760405163bc197c8160e01b81526001600160a01b0385169063bc197c8190611cd19089908990889088908890600401612846565b602060405180830381600087803b158015611ceb57600080fd5b505af1925050508015611d1b575060408051601f3d908101601f19168201909252611d18918101906128a4565b60015b611dc857611d276128c1565b806308c379a01415611d615750611d3c6128dd565b80611d475750611d63565b8060405162461bcd60e51b8152600401610489919061200d565b505b60405162461bcd60e51b815260206004820152603460248201527f455243313135353a207472616e7366657220746f206e6f6e20455243313135356044820152732932b1b2b4bb32b91034b6b83632b6b2b73a32b960611b6064820152608401610489565b6001600160e01b0319811663bc197c8160e01b14611bc45760405162461bcd60e51b815260040161048990612966565b60408051600180825281830190925260609160009190602080830190803683370190505090508281600081518110611e3257611e326125e6565b602090810291909101015292915050565b6001600160a01b0384163b1561152f5760405163f23a6e6160e01b81526001600160a01b0385169063f23a6e6190611e8790899089908890889088906004016129ae565b602060405180830381600087803b158015611ea157600080fd5b505af1925050508015611ed1575060408051601f3d908101601f19168201909252611ece918101906128a4565b60015b611edd57611d276128c1565b6001600160e01b0319811663f23a6e6160e01b14611bc45760405162461bcd60e51b815260040161048990612966565b6001600160a01b038116811461134657600080fd5b60008060408385031215611f3557600080fd5b8235611f4081611f0d565b946020939093013593505050565b6001600160e01b03198116811461134657600080fd5b600060208284031215611f7657600080fd5b8135611f8181611f4e565b9392505050565b6001600160a01b0391909116815260200190565b600060208284031215611fae57600080fd5b5035919050565b60005b83811015611fd0578181015183820152602001611fb8565b838111156109105750506000910152565b60008151808452611ff9816020860160208601611fb5565b601f01601f19169290920160200192915050565b602081526000611f816020830184611fe1565b634e487b7160e01b600052604160045260246000fd5b601f8201601f191681016001600160401b038111828210171561205b5761205b612020565b6040525050565b60006001600160401b0382111561207b5761207b612020565b5060051b60200190565b600082601f83011261209657600080fd5b813560206120a382612062565b6040516120b08282612036565b83815260059390931b85018201928281019150868411156120d057600080fd5b8286015b848110156120eb57803583529183019183016120d4565b509695505050505050565b600082601f83011261210757600080fd5b81356001600160401b0381111561212057612120612020565b604051612137601f8301601f191660200182612036565b81815284602083860101111561214c57600080fd5b816020850160208301376000918101602001919091529392505050565b600080600080600060a0868803121561218157600080fd5b853561218c81611f0d565b9450602086013561219c81611f0d565b935060408601356001600160401b03808211156121b857600080fd5b6121c489838a01612085565b945060608801359150808211156121da57600080fd5b6121e689838a01612085565b935060808801359150808211156121fc57600080fd5b50612209888289016120f6565b9150509295509295909350565b6000806040838503121561222957600080fd5b82356001600160401b038082111561224057600080fd5b818501915085601f83011261225457600080fd5b8135602061226182612062565b60405161226e8282612036565b83815260059390931b850182019282810191508984111561228e57600080fd5b948201945b838610156122b55785356122a681611f0d565b82529482019490820190612293565b965050860135925050808211156122cb57600080fd5b506122d885828601612085565b9150509250929050565b600081518084526020808501945080840160005b83811015612312578151875295820195908201906001016122f6565b509495945050505050565b602081526000611f8160208301846122e2565b60008060006060848603121561234557600080fd5b505081359360208301359350604090920135919050565b801515811461134657600080fd5b6000806040838503121561237d57600080fd5b823561238881611f0d565b915060208301356123988161235c565b809150509250929050565b60008083601f8401126123b557600080fd5b5081356001600160401b038111156123cc57600080fd5b6020830191508360208260051b85010111156123e757600080fd5b9250929050565b600080600080600080600080600060c08a8c03121561240c57600080fd5b8935985060208a01356001600160401b038082111561242a57600080fd5b6124368d838e016123a3565b909a50985060408c013591508082111561244f57600080fd5b61245b8d838e016123a3565b909850965060608c013591508082111561247457600080fd5b506124818c828d016123a3565b90955093505060808a013561249581611f0d565b915060a08a01356124a581611f0d565b809150509295985092959850929598565b6000806000606084860312156124cb57600080fd5b83356124d681611f0d565b92506020840135915060408401356124ed81611f0d565b809150509250925092565b60006020828403121561250a57600080fd5b8135611f8181611f0d565b6000806040838503121561252857600080fd5b823561253381611f0d565b9150602083013561239881611f0d565b600080600080600060a0868803121561255b57600080fd5b853561256681611f0d565b9450602086013561257681611f0d565b9350604086013592506060860135915060808601356001600160401b0381111561259f57600080fd5b612209888289016120f6565b600181811c908216806125bf57607f821691505b602082108114156125e057634e487b7160e01b600052602260045260246000fd5b50919050565b634e487b7160e01b600052603260045260246000fd5b634e487b7160e01b600052601160045260246000fd5b6000600019821415612626576126266125fc565b5060010190565b6020808252818101527f4f776e61626c653a2063616c6c6572206973206e6f7420746865206f776e6572604082015260600190565b602080825260149082015273494e56414c4944204c4943454e5345205459504560601b604082015260600190565b6000602082840312156126a257600080fd5b5051919050565b600082198211156126bc576126bc6125fc565b500190565b6000828210156126d3576126d36125fc565b500390565b6000602082840312156126ea57600080fd5b815160ff81168114611f8157600080fd5b60006020828403121561270d57600080fd5b8151611f8181611f0d565b6000816000190483118215151615612732576127326125fc565b500290565b60008261275457634e487b7160e01b600052601260045260246000fd5b500490565b60208082526025908201527f455243313135353a207472616e7366657220746f20746865207a65726f206164604082015264647265737360d81b606082015260800190565b6020808252602a908201527f455243313135353a20696e73756666696369656e742062616c616e636520666f60408201526939103a3930b739b332b960b11b606082015260800190565b6040815260006127fb60408301856122e2565b828103602084015261183381856122e2565b6000825161281f818460208701611fb5565b9190910192915050565b60006020828403121561283b57600080fd5b8151611f818161235c565b6001600160a01b0386811682528516602082015260a060408201819052600090612872908301866122e2565b828103606084015261288481866122e2565b905082810360808401526128988185611fe1565b98975050505050505050565b6000602082840312156128b657600080fd5b8151611f8181611f4e565b600060033d11156128da5760046000803e5060005160e01c5b90565b600060443d10156128eb5790565b6040516003193d81016004833e81513d6001600160401b03808311602484018310171561291a57505050505090565b82850191508151818111156129325750505050505090565b843d870101602082850101111561294c5750505050505090565b61295b60208286010187612036565b509095945050505050565b60208082526028908201527f455243313135353a204552433131353552656365697665722072656a656374656040820152676420746f6b656e7360c01b606082015260800190565b6001600160a01b03868116825285166020820152604081018490526060810183905260a0608082018190526000906129e890830184611fe1565b97965050505050505056fec3d58168c5ae7397731d063d5bbf3d657854427343f4c083240f7aacaa2d0f62a2646970667358221220c45042c5058d3eb03b19d040ebad8c99523e7ec5d1bd1ad9af9adbabc5b84b1a64736f6c6343000809003368747470733a2f2f6c6963656e73696e672d70726f746f636f6c2e76657263656c2e6170702f6170692f6c6963656e73652f7b69647d",
  "immutableReferences": {
    "265": [
      {
        "length": 32,
        "start": 814
      },
      {
        "length": 32,
        "start": 2072
      },
      {
        "length": 32,
        "start": 2689
      },
      {
        "length": 32,
        "start": 3486
      },
      {
        "length": 32,
        "start": 3635
      },
      {
        "length": 32,
        "start": 3846
      }
    ]
  },
  "source": "// SPDX-License-Identifier: BUSL-1.1\npragma solidity >=0.8.0;\n\nimport '@openzeppelin/contracts/access/Ownable.sol';\nimport '@openzeppelin/contracts/security/ReentrancyGuard.sol';\nimport '@openzeppelin/contracts/token/ERC1155/ERC1155.sol';\nimport '@openzeppelin/contracts/token/ERC20/IERC20.sol';\nimport '@uniswap/lib/contracts/libraries/TransferHelper.sol';\n\nimport './Factory.sol';\n\n// @author Julian Peters\n// @title License\ncontract License is Ownable, ERC1155, ReentrancyGuard {\n    uint256 constant totalSupply = 1000000000000000000; // 10^18\n\n    address public immutable factory;\n    address public creator;\n    address public USDC;\n\n    bytes32 public ipfsHash;\n    mapping(uint256 => bool) public licenseTypeExists;\n    mapping(uint256 => uint256) public licenseTypeToPrice;\n    mapping(uint256 => uint256) public licenseTypeToLimitRemaining; // @dev Introduces scarcity. 0 means no limit, 1 means none remaining\n    bytes32[] public pastIpfsHashes;\n    uint256[] public changedInBlock;\n\n    uint256 private usdcBalance = 0;\n\n    uint256[] public blocksWithEarnings;\n    mapping(uint256 => uint256) public earnedFees; // maps block number to fees\n    mapping(address => uint256) public lastClaimBlock;\n\n    event LicenseMint(\n        bytes32 ipfsHash,\n        uint256 licenseType,\n        uint256 licensePrice\n    );\n\n    // @dev Ideally, this should link directly to the ipfs:// protocol for full decentralization, but currently this doesn't work great with the ERC1155 standard and converting the IPFS hash from bytes32 to a valid IPFS string is tricky \n    constructor()\n        ERC1155('https://licensing-protocol.vercel.app/api/license/{id}')\n    {\n        factory = msg.sender;\n    }\n\n    // @dev Enable a new standard license type (as defined in Factory) for licensing\n    // @param _licenseType The type of license to enable\n    // @param _licensePrice The price of the license in USDC\n    // @param _licenseSupply The total number of licenses of this type that can be issued\n    function addAvailableLicenseType(\n        uint256 _licenseType,\n        uint256 _licensePrice,\n        uint256 _licenseSupply\n    ) public onlyOwner {\n        require(_licenseType != 0, 'INVALID LICENSE TYPE');\n        require(\n            licenseTypeExists[_licenseType] == false,\n            'LICENSE TYPE ALREADY EXISTS'\n        );\n        // @dev uint can never be negative, so no separate check necessary. Free licenses are possible.\n\n        // @dev: Get valid license types from factory\n        uint256 licenseCount = Factory(factory).availableLicenseTypesLength();\n\n        require(_licenseType <= licenseCount, 'INVALID LICENSE TYPE');\n\n        licenseTypeExists[_licenseType] = true;\n        licenseTypeToPrice[_licenseType] = _licensePrice;\n        if (_licenseSupply > 0)\n            licenseTypeToLimitRemaining[_licenseType] = _licenseSupply + 1;\n    }\n\n    function _setIpfsHash(bytes32 _ipfsHash) private {\n        // @dev Require valid hash (not empty string)\n        require(_ipfsHash[0] != 0, 'HASH CANNOT BE NULL');\n        ipfsHash = _ipfsHash;\n    }\n\n    // @dev Called by Factory at time of deployment\n    function initialize(\n        bytes32 _ipfsHash,\n        uint256[] calldata _licenseTypes,\n        uint256[] calldata _licensePrices,\n        uint256[] calldata _licenseSupply,\n        address sender,\n        address _USDC\n    ) external {\n        // @dev Prevent re-initialization (only factory contract can call this function, it does not have a function to re-initialize/re-create the same license)\n        require(msg.sender == factory, 'FORBIDDEN');\n\n        USDC = _USDC;\n\n        // @dev: Make sure that every license has a price and supply\n        require(\n            _licenseTypes.length == _licensePrices.length &&\n                _licenseTypes.length == _licenseSupply.length,\n            'LENGTH MISMATCH'\n        );\n\n        for (uint256 i = 0; i < _licenseTypes.length; i++) {\n            addAvailableLicenseType(\n                _licenseTypes[i],\n                _licensePrices[i],\n                _licenseSupply[i]\n            );\n        }\n        _setIpfsHash(_ipfsHash);\n\n        // @dev Mint to sender. Mints 1 token with 18 decimals. After inital mint, token can not be minted anymore (supply is fixed)\n        _mint(sender, 0, totalSupply, '');\n        // @dev Transfer ownership to sender. Would be better to initialize sender as owner, but this is not yet possible https://github.com/OpenZeppelin/openzeppelin-contracts/issues/2639\n        transferOwnership(sender);\n        // @dev Store original creator! => Owner can be changed through functions that come with Ownable\n        creator = sender;\n    }\n\n    function editIpfsHash(bytes32 _ipfsHash) external onlyOwner {\n        _setIpfsHash(_ipfsHash);\n        // @dev Remember old hash and block number where change occured\n        pastIpfsHashes.push(ipfsHash);\n        changedInBlock.push(block.number);\n    }\n\n    // @dev This function should not be called directly, but from a contract after transfering the necessary funds\n    // @param buyer Address of the contract caller passed by Market. Does not use tx.origin to follow best practice avoiding vulnerabilities.\n    // @param licenseType Type of license to buy\n    // @param referrerWallet Wallet that receives the referrer commission (usually the frontend). Set to 0x0 for none.\n    function buyLicense(\n        address buyer,\n        uint256 licenseType,\n        address referrerWallet\n    ) external {\n        require(licenseTypeExists[licenseType] == true, 'INVALID LICENSE TYPE');\n        require(\n            licenseTypeToLimitRemaining[licenseType] != 1,\n            'MINT LIMIT EXCEEDED'\n        );\n        uint256 cost = licenseTypeToPrice[licenseType];\n\n        // @dev Get current USDC balance and compare with previously stored balance to verify that cost has been paid\n        uint256 newUsdcBalance = IERC20(USDC).balanceOf(address(this));\n        require(\n            newUsdcBalance - cost >= usdcBalance,\n            'INSUFFICIENT PAYMENT SENT'\n        );\n\n        // @dev Transfer fees to treasury and referrer\n        if (cost > 0) {\n            uint8 treasuryFee = Factory(factory).treasuryFee();\n            address treasuryWallet = Factory(factory).treasuryWallet();\n            uint256 treasuryReward = 0;\n            if (treasuryFee > 0) {\n                treasuryReward = (cost * uint256(treasuryFee)) / 100;\n                TransferHelper.safeTransfer(\n                    USDC,\n                    treasuryWallet,\n                    treasuryReward\n                );\n            }\n\n            uint256 referrerFee = uint256(Factory(factory).referrerFee());\n            uint256 referrerReward = 0;\n            if (referrerWallet != address(0) && referrerFee > 0) {\n                referrerReward = (cost * referrerFee) / 100;\n                TransferHelper.safeTransfer(\n                    USDC,\n                    referrerWallet,\n                    referrerReward\n                );\n            }\n\n            earnedFees[block.number] += cost - treasuryReward - referrerReward;\n            blocksWithEarnings.push(block.number);\n        }\n\n        // @dev Issue 1 token with license type as id\n        _mint(buyer, licenseType, 1, '');\n\n        // @dev If supply is limited: Decrease by 1\n        if (licenseTypeToLimitRemaining[licenseType] > 0)\n            licenseTypeToLimitRemaining[licenseType] -= 1;\n\n        emit LicenseMint(ipfsHash, licenseType, cost);\n\n        // @dev Update balance\n        usdcBalance = IERC20(USDC).balanceOf(address(this));\n    }\n\n    // @dev Check if address has claimable license fees\n    // @param address The address to check for claimable license fees\n    // @return Claimable USDC amount\n    function _claimable(address user)\n        private\n        view\n        returns (uint256 totalClaimable)\n    {\n        // @dev Require token 0 balance\n        uint256 balance = balanceOf(user, 0);\n        require(balance > 0, 'NO RIGHT TO CLAIM');\n        uint256 totalFeesEarnedInTimespan = 0;\n        for (uint256 i = 0; i < blocksWithEarnings.length; i++) {\n            if (\n                blocksWithEarnings[i] > lastClaimBlock[user] &&\n                blocksWithEarnings[i] < block.number\n            ) {\n                // @dev Using the current block -1 prevents that a license is bought in the same block as the claim transaction after the claim transaction, in which case the claimer would not get a share of the license fees\n                totalFeesEarnedInTimespan += earnedFees[blocksWithEarnings[i]];\n            }\n        }\n\n        uint256 balanceShare = (totalSupply / balance);\n\n        totalClaimable = (totalFeesEarnedInTimespan / balanceShare);\n\n        return totalClaimable;\n    }\n\n    function claimable() public view returns (uint256 totalClaimable) {\n        return _claimable(msg.sender);\n    }\n\n    // @dev Send claimable license fees to address and record the claim\n    // @param address The address to claim for\n    function _claim(address user) private nonReentrant {\n        uint256 claimableUsdc = _claimable(user);\n        require(claimableUsdc > 0, 'NO FEES TO CLAIM');\n        // @dev Transfer USDC to user\n        TransferHelper.safeTransfer(USDC, user, claimableUsdc);\n        // @dev Update USDC balance\n        usdcBalance = IERC20(USDC).balanceOf(address(this));\n        // @dev Update last claim block\n        lastClaimBlock[user] = block.number - 1;\n    }\n\n    function claim() external {\n        _claim(msg.sender);\n    }\n\n    // @dev Modify ERC1155 transfer function to execute _claim() on every transfer for the sender as well as the recipient for token 0 transfers => prevents that a user can claim rewards multiple times by claiming, then transferring the owner token to another wallet and then claiming again\n    function _beforeTokenTransfer(\n        address operator,\n        address from,\n        address to,\n        uint256[] memory ids,\n        uint256[] memory amounts,\n        bytes memory data\n    ) internal virtual override {\n        for (uint256 i = 0; i < ids.length; i++) {\n            if (ids[i] == 0) {\n                if (blocksWithEarnings.length > 0) {\n                    uint256 senderClaimableBalance = _claimable(from);\n                    if (senderClaimableBalance > 0) _claim(from);\n                    if (balanceOf(to, 0) > 0) {\n                        uint256 recipientClaimableBalance = _claimable(to);\n                        if (recipientClaimableBalance > 0) _claim(to);\n                    } else lastClaimBlock[to] = block.number - 1;\n                }\n            }\n        }\n    }\n}\n",
  "sourcePath": "/Users/jp/Documents/GitHub/learn-truffle/contracts/License.sol",
  "compiler": {
    "name": "solc",
    "version": "0.8.9+commit.e5eed63a.Emscripten.clang"
  },
  "schemaVersion": "3.3.4",
  "updatedAt": "2021-10-03T19:14:57.711Z",
  "devdoc": {
    "kind": "dev",
    "methods": {
      "balanceOf(address,uint256)": {
        "details": "See {IERC1155-balanceOf}. Requirements: - `account` cannot be the zero address."
      },
      "balanceOfBatch(address[],uint256[])": {
        "details": "See {IERC1155-balanceOfBatch}. Requirements: - `accounts` and `ids` must have the same length."
      },
      "isApprovedForAll(address,address)": {
        "details": "See {IERC1155-isApprovedForAll}."
      },
      "owner()": {
        "details": "Returns the address of the current owner."
      },
      "renounceOwnership()": {
        "details": "Leaves the contract without owner. It will not be possible to call `onlyOwner` functions anymore. Can only be called by the current owner. NOTE: Renouncing ownership will leave the contract without an owner, thereby removing any functionality that is only available to the owner."
      },
      "safeBatchTransferFrom(address,address,uint256[],uint256[],bytes)": {
        "details": "See {IERC1155-safeBatchTransferFrom}."
      },
      "safeTransferFrom(address,address,uint256,uint256,bytes)": {
        "details": "See {IERC1155-safeTransferFrom}."
      },
      "setApprovalForAll(address,bool)": {
        "details": "See {IERC1155-setApprovalForAll}."
      },
      "supportsInterface(bytes4)": {
        "details": "See {IERC165-supportsInterface}."
      },
      "transferOwnership(address)": {
        "details": "Transfers ownership of the contract to a new account (`newOwner`). Can only be called by the current owner."
      },
      "uri(uint256)": {
        "details": "See {IERC1155MetadataURI-uri}. This implementation returns the same URI for *all* token types. It relies on the token type ID substitution mechanism https://eips.ethereum.org/EIPS/eip-1155#metadata[defined in the EIP]. Clients calling this function must replace the `\\{id\\}` substring with the actual token type ID."
      }
    },
    "version": 1
  },
  "userdoc": {
    "kind": "user",
    "methods": {},
    "version": 1
  }
}