{
  "contractName": "Market",
  "abi": [
    {
      "inputs": [
        {
          "internalType": "address",
          "name": "_factory",
          "type": "address"
        },
        {
          "internalType": "address",
          "name": "_USDC",
          "type": "address"
        }
      ],
      "stateMutability": "nonpayable",
      "type": "constructor"
    },
    {
      "inputs": [],
      "name": "USDC",
      "outputs": [
        {
          "internalType": "address",
          "name": "",
          "type": "address"
        }
      ],
      "stateMutability": "view",
      "type": "function",
      "constant": true
    },
    {
      "inputs": [],
      "name": "factory",
      "outputs": [
        {
          "internalType": "address",
          "name": "",
          "type": "address"
        }
      ],
      "stateMutability": "view",
      "type": "function",
      "constant": true
    },
    {
      "inputs": [
        {
          "internalType": "uint256",
          "name": "licenseType",
          "type": "uint256"
        },
        {
          "internalType": "address",
          "name": "licenseContract",
          "type": "address"
        },
        {
          "internalType": "address",
          "name": "referrerWallet",
          "type": "address"
        }
      ],
      "name": "buyLicense",
      "outputs": [],
      "stateMutability": "nonpayable",
      "type": "function"
    }
  ],
  "bytecode": "0x60c060405234801561001057600080fd5b506040516107cb3803806107cb83398101604081905261002f91610062565b6001600160a01b039182166080521660a052610095565b80516001600160a01b038116811461005d57600080fd5b919050565b6000806040838503121561007557600080fd5b61007e83610046565b915061008c60208401610046565b90509250929050565b60805160a0516106f86100d36000396000818160600152818161023f0152818161032b0152610403015260008181609d015260d601526106f86000f3fe608060405234801561001057600080fd5b50600436106100415760003560e01c80633c8a42951461004657806389a302711461005b578063c45a015514610098575b600080fd5b6100596100543660046105f5565b6100bf565b005b6100827f000000000000000000000000000000000000000000000000000000000000000081565b60405161008f9190610631565b60405180910390f35b6100827f000000000000000000000000000000000000000000000000000000000000000081565b6040516302c6a0a560e01b81526001600160a01b037f000000000000000000000000000000000000000000000000000000000000000016906302c6a0a59061010b908590600401610631565b60206040518083038186803b15801561012357600080fd5b505afa158015610137573d6000803e3d6000fd5b505050506040513d601f19601f8201168201806040525081019061015b9190610645565b61019e5760405162461bcd60e51b815260206004820152600f60248201526e494e56414c4944204c4943454e534560881b60448201526064015b60405180910390fd5b604051632c82cf1960e21b8152600481018490526000906001600160a01b0384169063b20b3c649060240160206040518083038186803b1580156101e157600080fd5b505afa1580156101f5573d6000803e3d6000fd5b505050506040513d601f19601f820116820180604052508101906102199190610645565b9050801561042d57604051636eb1769f60e11b81523360048201523060248201526000907f00000000000000000000000000000000000000000000000000000000000000006001600160a01b03169063dd62ed3e9060440160206040518083038186803b15801561028957600080fd5b505afa15801561029d573d6000803e3d6000fd5b505050506040513d601f19601f820116820180604052508101906102c19190610645565b9050818110156103115760405162461bcd60e51b815260206004820152601b60248201527a494e53554646494349454e54205553444320414c4c4f57414e434560281b6044820152606401610195565b6040516370a0823160e01b81526000906001600160a01b037f000000000000000000000000000000000000000000000000000000000000000016906370a0823190610360903390600401610631565b60206040518083038186803b15801561037857600080fd5b505afa15801561038c573d6000803e3d6000fd5b505050506040513d601f19601f820116820180604052508101906103b09190610645565b9050828110156103fe5760405162461bcd60e51b8152602060048201526019602482015278494e53554646494349454e5420555344432042414c414e434560381b6044820152606401610195565b61042a7f000000000000000000000000000000000000000000000000000000000000000033878661049b565b50505b604051631a83402360e31b8152336004820152602481018590526001600160a01b03838116604483015284169063d41a011890606401600060405180830381600087803b15801561047d57600080fd5b505af1158015610491573d6000803e3d6000fd5b5050505050505050565b604080516001600160a01b0385811660248301528481166044830152606480830185905283518084039091018152608490920183526020820180516001600160e01b03166323b872dd60e01b17905291516000928392908816916104ff919061065e565b6000604051808303816000865af19150503d806000811461053c576040519150601f19603f3d011682016040523d82523d6000602084013e610541565b606091505b509150915081801561056b57508051158061056b57508080602001905181019061056b9190610699565b6105d15760405162461bcd60e51b815260206004820152603160248201527f5472616e7366657248656c7065723a3a7472616e7366657246726f6d3a207472604482015270185b9cd9995c919c9bdb4819985a5b1959607a1b6064820152608401610195565b505050505050565b80356001600160a01b03811681146105f057600080fd5b919050565b60008060006060848603121561060a57600080fd5b8335925061061a602085016105d9565b9150610628604085016105d9565b90509250925092565b6001600160a01b0391909116815260200190565b60006020828403121561065757600080fd5b5051919050565b6000825160005b8181101561067f5760208186018101518583015201610665565b8181111561068e576000828501525b509190910192915050565b6000602082840312156106ab57600080fd5b815180151581146106bb57600080fd5b939250505056fea2646970667358221220c342134be0081af91d836e622ca77ace49f5d008eed5f894caced1e0ba00888264736f6c63430008090033",
  "immutableReferences": {
    "976": [
      {
        "length": 32,
        "start": 157
      },
      {
        "length": 32,
        "start": 214
      }
    ],
    "978": [
      {
        "length": 32,
        "start": 96
      },
      {
        "length": 32,
        "start": 575
      },
      {
        "length": 32,
        "start": 811
      },
      {
        "length": 32,
        "start": 1027
      }
    ]
  },
  "source": "// SPDX-License-Identifier: BUSL-1.1\npragma solidity >=0.8.0;\n\nimport '@openzeppelin/contracts/token/ERC20/IERC20.sol';\nimport '@uniswap/lib/contracts/libraries/TransferHelper.sol';\n\nimport './License.sol';\nimport './Factory.sol';\n\n// @author Julian Peters\n// @title Market\ncontract Market {\n    address public immutable factory;\n    address public immutable USDC;\n\n    // @param _factory Address of the Factory contract\n    // @param _USDC Address of the USDC contract\n    constructor(address _factory, address _USDC) {\n        factory = _factory;\n        USDC = _USDC;\n    }\n\n    // @notice Send funds to License contract and trigger the buying of a license\n    // @param licenseType Type of license to buy\n    // @param licenseContract Address of the license contract to buy from\n    // @param referrerWallet Wallet that receives the referrer commission (usually the frontend). Set to 0x0 for none.\n    function buyLicense(\n        uint256 licenseType,\n        address licenseContract,\n        address referrerWallet\n    ) external {\n        // @dev Only allow buying of licenses created by factory (prevent interaction with malicious contracts)\n        require(\n            Factory(factory).licensePosition(licenseContract) != 0,\n            'INVALID LICENSE'\n        );\n\n        uint256 cost = License(licenseContract).licenseTypeToPrice(licenseType);\n\n        if (cost > 0) {\n            uint256 allowance = IERC20(USDC).allowance(\n                msg.sender,\n                address(this)\n            );\n            require(allowance >= cost, 'INSUFFICIENT USDC ALLOWANCE');\n            uint256 balance = IERC20(USDC).balanceOf(msg.sender);\n            require(balance >= cost, 'INSUFFICIENT USDC BALANCE');\n            TransferHelper.safeTransferFrom(\n                USDC,\n                msg.sender,\n                licenseContract,\n                cost\n            );\n        }\n\n        License(licenseContract).buyLicense(\n            msg.sender,\n            licenseType,\n            referrerWallet\n        );\n    }\n}\n",
  "sourcePath": "/Users/jp/Documents/GitHub/learn-truffle/contracts/Market.sol",
  "compiler": {
    "name": "solc",
    "version": "0.8.9+commit.e5eed63a.Emscripten.clang"
  },
  "schemaVersion": "3.3.4",
  "updatedAt": "2021-10-03T19:19:39.687Z",
  "networkType": "ethereum",
  "devdoc": {
    "kind": "dev",
    "methods": {},
    "version": 1
  },
  "userdoc": {
    "kind": "user",
    "methods": {},
    "version": 1
  }
}